:100000000C9463000C948B000C948B000C94B3053F
:100010000C94B3050C94B3050C948B000C948B00DA
:100020000C948B000C948B000C948B000C948B0024
:100030000C948B000C948B000C948B000C948B0014
:100040000C9411050C948B000C9481050C945B05A9
:100050000C948B000C948B000C948B000C948B00F4
:100060000C948B000C948B000000000024002700EF
:100070002A0000000008000201000003040700003D
:1000800000000000000000000000230026002900FE
:1000900000000000250028002B00040404040404D0
:1000A0000404020202020202030303030303010227
:1000B00004081020408001020408102001020408F6
:1000C00010202B06EA0911241FBECFEFD8E0DEBFB7
:1000D000CDBF22E0A0E9B1E001C01D92A03CB20773
:1000E000E1F711E0A0E0B1E0E6ECFDE102C005902F
:1000F0000D92A039B107D9F710E0C2E6D0E004C0F4
:100100002197FE010E943D0AC136D107C9F70E941E
:10011000D6060C94D60E0C940000833081F028F49F
:10012000813099F08230A9F008958730A9F08830A5
:10013000C9F08430B1F4809180008F7D03C080913C
:1001400080008F7780938000089584B58F7784BD79
:10015000089584B58F7DFBCF8091B0008F77809319
:10016000B00008958091B0008F7DF9CFCF93DF93D9
:10017000282F30E0F901EE58FF4F8491F901E25544
:10018000FF4FD491F901E656FF4FC491CC23A1F063
:1001900081110E948D00EC2FF0E0EE0FFF1FEA5757
:1001A000FF4FA591B491EC91ED2381E090E009F42B
:1001B00080E0DF91CF91089580E090E0FACF1F9327
:1001C000CF93DF93282F30E0F901EE58FF4F849151
:1001D000F901E255FF4FD491F901E656FF4FC49162
:1001E000CC23A9F0162F81110E948D00EC2FF0E096
:1001F000EE0FFF1FE057FF4FA591B4918FB7F89412
:10020000EC91111108C0D095DE23DC938FBFDF91F4
:10021000CF911F910895DE2BF8CFE5E7F0E0E49150
:10022000E33039F160F4E130D1F0E230E9F060E040
:10023000803891050CF061E083E00C94DF00E7303A
:1002400011F1E83041F1E43091F720918000206213
:100250002093800090938B0080938A00089594B53A
:10026000906894BD87BD089594B5906294BD88BD93
:100270000895209180002068209380009093890049
:100280008093880008959091B00090689093B0009A
:100290008093B30008959091B00090629093B00065
:1002A0008093B4000895CF93DF9390E0FC01E25572
:1002B000FF4F249186569F4FFC0184918823D1F0F3
:1002C00090E0880F991FFC01E859FF4FA591B49168
:1002D000FC01E057FF4FC591D49161110EC09FB74B
:1002E000F8948C91E22FE0958E238C932881E22361
:1002F000E8839FBFDF91CF9108958FB7F894EC9179
:10030000E22BEC938FBFF6CF2FB7F8946091FC01EE
:100310007091FD018091FE019091FF012FBF089522
:10032000AF92BF92CF92DF92EF92FF920F931F9303
:10033000CF93DF936C017B018B01040F151FEB0141
:100340005E01AE18BF08C017D10759F06991D601F8
:10035000ED91FC910190F081E02DC6010995892B6A
:1003600079F7C501DF91CF911F910F91FF90EF9029
:10037000DF90CF90BF90AF900895FC01538D448DD6
:10038000252F30E0842F90E0821B930B541710F040
:10039000CF96089501970895FC01918D828D98174D
:1003A00061F0A28DAE0FBF2FB11D5D968C91928D25
:1003B0009F5F9F73928F90E008958FEF9FEF089556
:1003C000FC01918D828D981731F0828DE80FF11D1F
:1003D000858D90E008958FEF9FEF0895FC01918D3A
:1003E000228D892F90E0805C9F4F821B91098F7333
:1003F0009927089580E092E00E94EE0121E0892B88
:1004000009F420E0822F089580E090E0892B29F004
:100410000E94FA0181110C9400000895FC01A48D42
:10042000A80FB92FB11DA35ABF4F2C91848D90E016
:1004300001968F739927848FA689B7892C93A089F9
:10044000B1898C91837080648C93938D848D981383
:1004500006C00288F389E02D80818F7D8083089516
:10046000EF92FF920F931F93CF93DF93EC0181E004
:10047000888F9B8D8C8D98131AC0E889F9898081AB
:1004800085FF15C09FB7F894EE89FF896083E889DE
:10049000F98980818370806480839FBF81E090E0D0
:1004A000DF91CF911F910F91FF90EF900895F62E5D
:1004B0000B8D10E00F5F1F4F0F731127E02E8C8DF7
:1004C0008E110CC00FB607FCFACFE889F98980813C
:1004D00085FFF5CFCE010E940E02F1CFEB8DEC0F20
:1004E000FD2FF11DE35AFF4FF0829FB7F8940B8F59
:1004F000EA89FB8980818062CFCFCF93DF93EC01C3
:10050000888D8823B9F0AA89BB89E889F9898C91FB
:1005100085FD03C0808186FD0DC00FB607FCF7CFB7
:100520008C9185FFF2CF808185FFEDCFCE010E94B7
:100530000E02E9CFDF91CF9108952091F001309123
:10054000F1012817390771F49091EE018091EF01C4
:10055000981741F0E091EE01F0E0E255FE4F808106
:1005600090E008958FEF9FEF08950895EF92FF9226
:100570000F931F93CF93DF93DC015C96ED90FC907B
:100580005D97E114F10479F481E090E013969C9377
:100590008E93129790E080E0DF91CF911F910F91A1
:1005A000FF90EF9008955196ED91FC9152975096DF
:1005B0008C915097982F90950FB75E962C915E97DF
:1005C000122F127021FD6095F8942081112319F1EA
:1005D000282B2083E7012197F1F728E0462F50E0F0
:1005E000308160FF1AC0382B3083E7012197F1F783
:1005F000BA0175956795215089F7112381F08081A3
:10060000892380830FBF5C968D919C910197F1F7B0
:1006100081E090E0C1CF2923DCCF3923E5CF908161
:10062000892BEFCF2091F0013091F1012817390784
:1006300061F48091EF012091EE0190E0805C9F4F8A
:10064000821B91098F739927089590E080E00895A7
:100650002091F0013091F10128173907B9F49091F8
:10066000EE018091EF01981789F0E091EE01F0E042
:10067000E255FE4F80812091EE0130E02F5F3F4F29
:100680002F7333272093EE0190E008958FEF9FEFB3
:10069000089590E080E00895FB0101900020E9F7C3
:1006A0003197AF01461B570BDC01ED91FC910280A5
:1006B000F381E02D09940F931F93CF93DF93EC0107
:1006C0000E944C038C0167E371E0CE010E944C0351
:1006D000800F911FDF91CF911F910F910895FC0121
:1006E00080819181009711F00C94DF0A08950F9397
:1006F0001F93CF93DF93EC0188819981009759F084
:100700002A813B812617370730F081E0DF91CF91B6
:100710001F910F9108958B016F5F7F4F0E94680BAF
:10072000009759F0998388831B830A832C813D812C
:10073000232B59F7FC011082E8CF80E0E7CFEF923E
:10074000FF920F931F93CF93DF93EC01FB01E080A7
:10075000F180E114F10411F10481158101151105F5
:10076000A9F08C819D81080F191FB801CE010E944C
:100770007703882399F0288139818C819D81B70185
:10078000820F931F0E942E0C1D830C83CE01DF91DC
:10079000CF911F910F91FF90EF90089588819981DB
:1007A000009711F00E94DF0A198218821D821C82B4
:1007B0001B821A82EBCFEF92FF920F931F93CF937E
:1007C000DF93EC017B018A01BA010E947703288143
:1007D0003981811114C02115310519F0C9010E9418
:1007E000DF0A198218821D821C821B821A82CE01A6
:1007F000DF91CF911F910F91FF90EF9008951D838E
:100800000C83B701C9010E942E0CF1CF42E050E0E9
:100810006AE371E00C94DB03FB01DC0111961C928E
:100820001E9213961C921E92129715961C921E925F
:1008300014978617970749F06081718161157105DA
:1008400021F0448155810C94DB030895FC01118251
:1008500010821382128215821482FB010190002003
:10086000E9F73197AF01461B570B0C94DB036F92EE
:100870007F928F929F92AF92BF92CF92DF92EF9230
:10088000FF920F931F93CF93DF938C0180E091E051
:100890009F938F938DE391E09F938F9380E991E0F5
:1008A0009F938F930E94350C0E9484016B017C0101
:1008B00060E971E08DE992E00E945B0360E971E01C
:1008C00080E092E00E945B030F900F900F900F90DA
:1008D0000F900F900E9484016C197D098E099F0969
:1008E000683E73408105910508F456C06AE471E0E2
:1008F00080E092E00E945B03F801448155816081B1
:1009000071818DE992E00E94900167E371E08DE9C9
:1009100092E00E944C036AE18DE992E0DF91CF9171
:100920001F910F91FF90EF90DF90CF90BF90AF900D
:100930009F908F907F906F900C94B602C1E0D0E0B2
:100940000E9484016093A5027093A6028093A7027F
:100950009093A8028DE992E00E94280397FF51C06E
:100960000E9484018090A5029090A602A090A70208
:10097000B090A802681979098A099B098090A102A0
:100980009090A202A090A302B090A40268157905ED
:100990008A059B05F8F29ECFD0E0C0E0D1CF3F01A1
:1009A0004AE451E0209761F2BC2EAD2E2197F3016D
:1009B00022913F01022E000C330B2817390731F02A
:1009C000209709F4BDCF4F5F5F4FEECF209709F41A
:1009D000B5CFBA016F5F7F4FAAE4B1E030E020E00D
:1009E0008D90FB019190BF01891005C02F5F3F4F93
:1009F0002C173D07A8F32C173D0729F7CB2DDA2D2F
:100A00009FCFFE01E65BFE4F2081022E000C330BD0
:100A10002817390721F62196C730D10509F090CF64
:100A200065CF1F920F920FB60F9211242F933F9311
:100A30008F939F93AF93BF938091FC019091FD01A1
:100A4000A091FE01B091FF013091FB0123E0230F43
:100A50002D3758F50196A11DB11D2093FB01809300
:100A6000FC019093FD01A093FE01B093FF018091E2
:100A7000F7019091F801A091F901B091FA01019666
:100A8000A11DB11D8093F7019093F801A093F90186
:100A9000B093FA01BF91AF919F918F913F912F91A8
:100AA0000F900FBE0F901F90189526E8230F029607
:100AB000A11DB11DD2CF1F920F920FB60F9211241C
:100AC0002F933F934F935F936F937F938F939F9356
:100AD000AF93BF93EF93FF9380E092E00E940E02EA
:100AE000FF91EF91BF91AF919F918F917F916F9106
:100AF0005F914F913F912F910F900FBE0F901F90DC
:100B000018951F920F920FB60F9211242F938F9367
:100B10009F93EF93FF93E0911002F0911102808177
:100B2000E0911602F091170282FD1BC09081809126
:100B300019028F5F8F7320911A02821741F0E091A2
:100B40001902F0E0E050FE4F958F80931902FF915B
:100B5000EF919F918F912F910F900FBE0F901F904B
:100B600018958081F4CF1F920F920FB60F92112427
:100B70002F933F934F935F936F937F938F939F93A5
:100B8000AF93BF93EF93FF93E091F001F091F101E8
:100B9000309749F0A685B7858585968D91FF14C05D
:100BA0009C918923A1F4FF91EF91BF91AF919F9107
:100BB0008F917F916F915F914F913F912F910F9006
:100BC0000FBE0F901F9018959C91892361F7A38900
:100BD000B4899C918589809589238C93868997898E
:100BE0000197F1F7608D718DA685B785558538E041
:100BF00020E0CB010197F1F7822F90E09595879542
:100C0000282F4C91452309F02068315091F7868DAB
:100C100081FD20958091EF0190E001968F739927D7
:100C20003091EE01381799F0A091EF01B0E0A25594
:100C3000BE4F2C938093EF01828D938D0197F1F736
:100C4000A389B4898C919589892B8C93ACCF868D9F
:100C50008160868FF1CF109203021092020288EE1B
:100C600093E0A0E0B0E08093040290930502A0938B
:100C70000602B093070227E131E03093010220938E
:100C8000000225EC30E030930D0220930C0224EC9E
:100C900030E030930F0220930E0220EC30E03093CE
:100CA00011022093100221EC30E0309313022093C4
:100CB000120222EC30E0309315022093140226EC4D
:100CC00030E030931702209316021092190210920E
:100CD0001A0210921B0210921C021092A002109293
:100CE0009F028093A1029093A202A093A302B093CB
:100CF000A40289E291E090939E0280939D0210925B
:100D0000B4021092B3021092B6021092B502109281
:100D1000B8021092B7021092BA021092B902609112
:100D2000BB026E7F6D7F6093BB026695617081E050
:100D300068278BE00E94DF0061E08BE00E94530196
:100D4000E9EBF0E0E491E093AD02E5EAF0E0E49154
:100D5000F0E0EE0FFF1FE057FF4F859194919093C5
:100D6000AF028093AE0260E08AE00E94530180915E
:100D7000BB0281FD04C061E08AE00E94DF008AE0DE
:100D80008093A902E8EBF0E0E491E093AA02E4EAA0
:100D9000F0E0E491F0E0EE0FFF1FEA57FF4F85917E
:100DA00094919093AC028093AB020895CF93DF931C
:100DB000CDB7DEB762970FB6F894DEBF0FBECDBFDA
:100DC000789484B5826084BD84B5816084BD85B526
:100DD000826085BD85B5816085BD80916E00816032
:100DE00080936E00109281008091810082608093D8
:100DF00081008091810081608093810080918000DA
:100E00008160809380008091B10084608093B10004
:100E10008091B00081608093B00080917A008460FE
:100E200080937A0080917A00826080937A0080912A
:100E30007A00816080937A0080917A008068809344
:100E40007A001092C1001092B8021092B70210926C
:100E5000B6021092B5021092B4021092B3028DE95C
:100E600091E09093BA028093B9029091A9029631D1
:100E700008F047C02DEB30E03093B4022093B3026A
:100E80002BE931E03093B6022093B5022CE231E039
:100E90003093B8022093B7022091680084E0983024
:100EA00048F031E09E3008F430E081E001C0880F66
:100EB0003A95EAF7822B809368002DE630E098306F
:100EC00050F02BE630E09E3030F02CE630E09631EA
:100ED00010F030E020E03093B1022093B002292FCF
:100EE00030E0983008F03AC281E001C0880F9A954E
:100EF000EAF78093B2028091B9029091BA02019709
:100F0000F1F78091B7029091B802892B49F1E091F5
:100F1000F001F091F10182E0ED39F80709F1309725
:100F200039F0A389B4899C918589809589238C9314
:100F30008091BB028E7F8093BB021092EF011092D2
:100F4000EE018DE992E09093F1018093F001E09140
:100F5000B002F091B10280819091B202892B80831E
:100F6000E0911002F091110282E08083E0910C0286
:100F7000F0910D021082E0910E02F0910F028FECC1
:100F8000808310921802E0911402F091150286E01D
:100F90008083E0911202F09113028081806180834E
:100FA000E0911202F0911302808188608083E091C9
:100FB0001202F0911302808180688083E091120216
:100FC000F091130280818F7D808361E089E00E942F
:100FD000530161E088E00E94530161E087E00E94D4
:100FE000530161E086E00E94530160E08EE00E94C0
:100FF000530160E08FE00E94530160E080E10E94B5
:10100000530160E081E10E94530161E083E00E94AE
:10101000530161E082E00E94530160E08CE00E9495
:10102000530160E084E00E94530160E085E00E948B
:10103000530160E082E10E94530160E083E10E947D
:10104000530160E089E00E94DF0060E088E00E94D8
:10105000DF0060E087E00E94DF0060E086E00E9441
:10106000DF0060E083E00E94DF0060E082E00E9439
:10107000DF0080E0682E80E0782E8EE00E94B600CF
:10108000892B09F040C089E00E94B60061E0892BFD
:1010900009F060E089E00E94DF0062E571E0CE01C6
:1010A0000D960E94260489E00E94B600892B21F04B
:1010B000CE010D960E94060466E571E0CE0107960A
:1010C0000E942604BE01635F7F4FCE0107960E94F7
:1010D0009F03BC01CE0101960E940C04CE01019633
:1010E0000E943704CE0101960E946F03CE0107963D
:1010F0000E946F038EE00E94B600892BD9F3CE01C7
:101100000D960E946F038FE00E94B600892B09F0B4
:1011100040C088E00E94B60061E0892B09F060E0E1
:1011200088E00E94DF0062E571E0CE010D960E942A
:10113000260488E00E94B600892B21F0CE010D968E
:101140000E94060461E671E0CE0107960E94260423
:10115000BE01635F7F4FCE0107960E949F03BC01D3
:10116000CE0101960E940C04CE0101960E94370424
:10117000CE0101960E946F03CE0107960E946F0375
:101180008FE00E94B600892BD9F3CE010D960E9404
:101190006F0380E10E94B600892B09F040C087E010
:1011A0000E94B60061E0892B09F060E087E00E94B0
:1011B000DF0062E571E0CE010D960E94260487E013
:1011C0000E94B600892B21F0CE010D960E940604E4
:1011D0006CE671E0CE0107960E942604BE01635FB3
:1011E0007F4FCE0107960E949F03BC01CE0101965E
:1011F0000E940C04CE0101960E943704CE01019694
:101200000E946F03CE0107960E946F0380E10E9447
:10121000B600892BD9F3CE010D960E946F0381E1B0
:101220000E94B600892B09F040C086E00E94B600FB
:1012300061E0892B09F060E086E00E94DF0062E552
:1012400071E0CE010D960E94260486E00E94B60051
:10125000892B21F0CE010D960E94060467E771E00C
:10126000CE0107960E942604BE01635F7F4FCE0128
:1012700007960E949F03BC01CE0101960E940C04B8
:10128000CE0101960E943704CE0101960E946F03A1
:10129000CE0107960E946F0381E10E94B600892B60
:1012A000D9F3CE010D960E946F038CE00E94B60028
:1012B0007C0184E00E94B6005C0185E00E94B600DB
:1012C0008C0182E10E94B6006C0183E10E94B600AD
:1012D0004C010E9484012091F3013091F40140916E
:1012E000F5015091F6011B012C01221A330A440A20
:1012F000550AA20191012436310541055105E8F155
:101300006093F3017093F4018093F5019093F601DB
:10131000E114F10481F50115110569F18091F201E3
:10132000811112C062E871E0CE0101960E9426048C
:10133000CE0101960E943704CE0101960E946F03F0
:10134000332433943092F20161E083E00E94530130
:1013500086E490E00E940D0160E02DC09E3040F4D4
:101360002850310981E001C0880F2A95EAF7C1CDE4
:101370002E503109F7CF1092F201EF2859F4012BCA
:1013800019F761E083E00E94530160E083E00E946E
:10139000DF00E2CF012B11F08928B1F2AB2889F3ED
:1013A000CD2879F761E083E00E94530184EB90E05F
:1013B0000E940D0161E082E00E94DF00611471046F
:1013C00009F45BCE0E94FA01882309F456CE0E94EC
:1013D000000053CE89E291E090939E0280939D029B
:1013E0008091F0019091F1018D59924071F4E0915A
:1013F000B002F091B10290818091B2028095892370
:1014000080831092F1011092F00108952F923F9283
:101410004F925F926F927F928F929F92AF92BF9204
:10142000CF92DF92EF92FF920F931F93CF93DF93B0
:10143000CDB7DEB7CA1BDB0B0FB6F894DEBF0FBE0D
:10144000CDBF09942A88398848885F846E847D845A
:101450008C849B84AA84B984C884DF80EE80FD805C
:101460000C811B81AA81B981CE0FD11D0FB6F894D2
:10147000DEBF0FBECDBFED010895EE0FFF1F05903B
:10148000F491E02D09940F931F93CF93DF93823053
:10149000910510F482E090E0E091BE02F091BF026D
:1014A00030E020E0B0E0A0E0309799F4211531055C
:1014B00009F44AC0281B390B24303105D8F58A813C
:1014C0009B816115710589F1FB0193838283FE0184
:1014D00011C0408151810281138148175907E0F002
:1014E0004817590799F4109761F012960C931297C8
:1014F00013961C933296CF01DF91CF911F910F91DC
:1015000008950093BE021093BF02F4CF2115310558
:1015100051F04217530738F0A901DB019A01BD01D0
:10152000DF01F801C1CFEF01F9CF9093BF028093A3
:10153000BE02CDCFFE01E20FF31F819391932250A3
:10154000310939832883D7CF2091BC023091BD0265
:10155000232B41F420910F01309110013093BD02F3
:101560002093BC0220910D0130910E01211531050F
:1015700041F42DB73EB74091110150911201241B47
:10158000350BE091BC02F091BD02E217F307A0F425
:101590002E1B3F0B2817390778F0AC014E5F5F4FC9
:1015A0002417350748F04E0F5F1F5093BD0240933C
:1015B000BC02819391939FCFF0E0E0E09CCFCF936A
:1015C000DF930097E9F0FC01329713821282A09119
:1015D000BE02B091BF02ED0130E020E01097A1F40F
:1015E00020813181820F931F2091BC023091BD0276
:1015F0002817390709F061C0F093BD02E093BC02DF
:10160000DF91CF910895EA01CE17DF07E8F54A810F
:101610005B819E0141155105B1F7E901FB83EA8326
:1016200049915991C40FD51FEC17FD0761F48081D2
:1016300091810296840F951FE901998388838281A5
:1016400093819B838A83F0E0E0E012968D919C91D8
:1016500013970097B9F52D913C911197CD01029602
:10166000820F931F2091BC023091BD0228173907C9
:1016700039F6309751F51092BF021092BE02B09326
:10168000BD02A093BC02BCCFD383C28340815181F1
:10169000840F951FC817D90761F44E5F5F4F88818B
:1016A0009981480F591F518340838A819B8193837D
:1016B00082832115310509F0B0CFF093BF02E0938A
:1016C000BE029ECFFD01DC01C0CF13821282D7CFB4
:1016D000B0E0A0E0EEE6FBE00C94080A8C01009775
:1016E00051F4CB010E94430A8C01C801CDB7DEB78B
:1016F000E0E10C94240AFC01E60FF71F9C01225044
:101700003109E217F30708F49DC0D901CD91DC91AE
:101710001197C617D70798F0C530D10530F3CE0121
:1017200004978617970708F3C61BD70B2297C19318
:10173000D1936D937C93CF010E94DF0AD6CF5B01DA
:10174000AC1ABD0A4C018C0E9D1EA091BE02B09138
:10175000BF02512C412CF12CE12C109731F58091D6
:10176000BC029091BD028815990509F05CC046162F
:10177000570608F058C080910D0190910E01009716
:1017800041F48DB79EB74091110150911201841B15
:10179000950BE817F90708F055C0F093BD02E093E8
:1017A000BC02F90171836083A0CF8D919C91119748
:1017B00012966C90129713967C901397A815B90502
:1017C00059F56C0142E0C40ED11CCA14DB0420F1AF
:1017D000AC014A195B09DA011296159780F0628212
:1017E000738251834083D9016D937C93E114F1049A
:1017F00071F0D7011396FC93EE93129776CF229651
:101800008C0F9D1FF90191838083F301EFCFF0933B
:10181000BF02E093BE0269CF4816590608F42C01B6
:101820007D01D3019ACFCB010E94430A7C0100972E
:1018300049F0AE01B8010E94250CC8010E94DF0AE0
:10184000870153CF10E000E050CFFB01DC0102C064
:1018500001900D9241505040D8F70895FB01DC01F2
:1018600001900D920020E1F70895AEE0B0E0EBE3C7
:10187000FCE00C94140A0D891E8986E08C831A837F
:1018800009838FEF9FE79E838D83AE01475E5F4F95
:101890006F89788DCE0101960E94580C2F81388572
:1018A000020F131FF80110822E96E4E00C94300A08
:1018B000ABE0B0E0EEE5FCE00C94060A7C013B01F5
:1018C0008A01FC0117821682838181FFC8C1CE0183
:1018D00001965C01F7019381F30193FD859193FFDC
:1018E00081913F01882309F453C1853239F493FD76
:1018F000859193FF81913F01853229F4B70190E0F2
:101900000E94480EE7CF912C212C312CFFE1F315DA
:1019100038F08B3211F190F4803209F1833229F1E1
:1019200037FC3CC020ED280F2A3050F536FE20C091
:101930008AE0989E200D1124922E06C08D3291F0DF
:10194000803371F7689430F8F30193FD859193FF2C
:1019500081913F018111DACF21C0689431F86894F8
:1019600032F8F2CF689433F8EFCF689434F8ECCFC4
:10197000EAE02E9E200D1124222E689435F8E4CF43
:101980008E3229F436FC04C1689436F8DDCF8C36EB
:1019900019F4689437F8D8CF8836B1F2982F9F7D24
:1019A00095549330E0F08336A1F18337C1F183354C
:1019B00009F063C02801F2E04F0E511CF801C0800D
:1019C000D180692D70E036FC02C06FEF7FEFC60159
:1019D0000E94320E4C01689437F882010AC00C5FF5
:1019E0001F4FFFE3F98388248394912C6501E894C9
:1019F00037F833FE2DC0522C8114910471F5552017
:101A000009F468CFB70180E290E00E94480E5A9432
:101A1000F6CFF801808189830E5F1F4FE4CF280144
:101A2000F2E04F0E511CF801C080D180692D70E0AA
:101A300036FC02C06FEF7FEFC6010E943D0E4C01E5
:101A40008201D5CFB70180E290E00E94480E2A942F
:101A50002814190409F0B0F7CECFF60137FC8591B0
:101A600037FE81916F01B70190E00E94480E51103E
:101A70005A94F1E08F1A9108BFCF843619F0893655
:101A800009F077C0F80137FE6BC0608171818281F7
:101A900093810C5F1F4FF32DFF763F2E97FF09C0F8
:101AA00090958095709561957F4F8F4F9F4F68946B
:101AB00037F82AE030E0A5010E94780EC82ECA1837
:101AC0008C2C432C36FE0CC0E89440F8C91440F42A
:101AD00034FE05C032FC03C0F32DFE7E4F2E892C50
:101AE00044FE95C0FE01EC0DF11D8081803309F0AC
:101AF00087C0242D297E422E842D8870582E43FCC9
:101B000095C040FE8FC09C2C821418F42C0C922C93
:101B1000981844FE91C0B70180E390E00E94480EFF
:101B200042FE09C088E790E041FE02C088E590E0EF
:101B3000B7010E94480EC91408F48AC0CA94D12C77
:101B40009FEFC91AD90ACA0CDB1CF60182916F01FA
:101B5000B70190E00E94480EAC14BD04B1F74FCF1E
:101B600060817181072E000C880B990B0E5F1F4F4F
:101B700092CFD32CE894D4F82AE030E0853739F1BD
:101B8000232D297FD22E8F3601F148F48835A9F014
:101B9000F701868197812B96E2E10C94220A803727
:101BA00049F08837A9F7D4FE02C06894D2F820E142
:101BB00030E00DC06894D4F8F6CF34FE03C0822F15
:101BC0008660D82E20E132E002C028E030E0F80143
:101BD000D7FE0FC060817181828193810C5F1F4F9E
:101BE000A5010E94780EC82ECA183D2CE89437F83B
:101BF00067CF6081718190E080E00E5F1F4FF0CF72
:101C000042FC02C0839478CF8394839475CF842D53
:101C1000867809F471CFF6CFB70180E290E00E9498
:101C2000480E83948214C0F3512C73CF522C581851
:101C3000821408F46ECFF8CF842D867809F47BCF18
:101C40008BE241FE80E247FC8DE2B70190E071CF6C
:101C5000B70180E390E00E94480E9A946CCF8FEF1A
:101C60009FEF99CFFC010590615070400110D8F7AB
:101C7000809590958E0F9F1F0895FC0161507040D4
:101C800001900110D8F7809590958E0F9F1F0895B1
:101C90000F931F93CF93DF93182F092FEB018B81A5
:101CA00081FD09C01FEF0FEF812F902FDF91CF91A2
:101CB0001F910F91089582FF14C02E813F818C8166
:101CC0009D81281739073CF4E881F981CF010196FD
:101CD0009983888310838E819F8101969F838E8351
:101CE000E3CFE885F985812F0995892BA1F3DACF18
:101CF000FA01AA27283051F1203181F1E8946F933D
:101D00006E7F6E5F7F4F8F4F9F4FAF4FB1E03ED0E2
:101D1000B4E03CD0670F781F891F9A1FA11D680F80
:101D2000791F8A1F911DA11D6A0F711D811D911DB3
:101D3000A11D20D009F468943F912AE0269F112428
:101D40003019305D3193DEF6CF010895462F47708C
:101D5000405D4193B3E00FD0C9F7F6CF462F4F70E7
:101D6000405D4A3318F0495D31FD4052419302D045
:101D7000A9F7EACFB4E0A6959795879577956795EB
:101D8000BA95C9F700976105710508959B01AC01EB
:101D90000A2E06945795479537952795BA95C9F712
:101DA000620F731F841F951FA01D089510E0C2E6E7
:101DB000D0E004C0FE010E943D0A2196C336D1073F
:061DC000C9F7F894FFCF03
:101DC6002B3834393335303134373739000000C0D9
:101DD6000280000000000030029001BD017D02EE8D
:101DE60001CC01E00100000000B60290014903B5F4
:101DF60002120328039D020D0A004F4E0041542B88
:101E0600434D47533D222573220053656E64696E28
:101E160067004F46460072656C61792031203A2092
:101E26000072656C61792032203A200072656C611F
:101E3600792033203A200072656C61792034203A8B
:101E4600200049742773207261696E696E672100EC
:00000001FF
