:1000000000308A007F280000D232EC307910E939C4
:10001000A027CE060A00D232EC307910E939A027A9
:1000200046230D05000023308400831300080319C4
:1000300026280230F800F701F70B1C28F80B1B28C4
:100040009730F700F70B2228800B192808000B08BF
:10005000A3008B13831603178C170C1400000000E9
:1000600083120313A31B8B1703170C087F39031983
:100070007D280313A30003170D080313A40003171F
:100080000F080313A50023080C1E44289900240818
:1000900003178D000313250803178F0003130B08A4
:1000A000A6008B13831603178C170C140000000096
:1000B00083120313A61B8B1703170C0D0E0D7F392C
:1000C00003197D280313A30003170D080313A400CD
:1000D00003170F080313A50023080C1E6D289900B1
:1000E000240803178D000313250803178F008D0ABA
:1000F00003198F0A031327280317031308000308A3
:100100001F398300713083168F0090010F08031789
:1001100087110C3003139900A2309800903083129D
:100120009800A101A001831603170908C0398900AE
:1001300003131F129F1200300317880083128701D8
:10014000880189018313FF308316031386009F30D3
:1001500088000914891009118911081083120810E8
:10016000A2018316061483120618DD283230A3007C
:100170001320831608100130831288068316081492
:100180008312A2010818A20A220BCE2804300317FA
:100190008D0000308F0003132720D5280B30031764
:1001A0008D0000308F00031327208316061483125E
:0E01B000061CD5283230A3001320B1286300AE
:04400E00E42FFF3F5D
:00000001FF
;PIC16F887
;CRC=2E8A  CREATED="03-May-23 16:57"
